:020000040800F2
:10000000082E0024AD030008E33300089D240008F7
:10001000E1330008B3040008B9380008000000000C
:100020000000000000000000000000004D37000844
:100030000105000800000000E53300084F37000804
:10004000C7030008C7030008C7030008C703000868
:10005000C7030008C7030008C7030008C703000858
:10006000C7030008C7030008C7030008C703000848
:10007000C7030008C7030008C7030008C703000838
:10008000C7030008C7030008C7030008C703000828
:10009000C7030008C7030008C7030008C703000818
:1000A000C7030008C7030008C7030008C703000808
:1000B000C7030008C7030008C7030008C7030008F8
:1000C000C7030008C7030008C7030008C7030008E8
:1000D00029360008C7030008C7030008C703000843
:1000E000C7030008C703000800000000C70300089A
:1000F000C7030008C7030008C7030008C7030008B8
:10010000C7030008C7030008C7030008C7030008A7
:10011000C7030008C7030008C7030008C703000897
:10012000C7030008C7030008C7030008C703000887
:10013000C7030008C7030008C7030008C703000877
:1001400000000000000000000000000000000000AF
:10015000C7030008C7030008C7030008C703000857
:10016000C7030008C7030008C7030008C703000847
:10017000C7030008C7030008C70300080000000009
:10018000C7030008C7030008C7030008C703000827
:10019000C7030008C7030008C7030008C703000817
:1001A000C7030008C7030008C703000800000000D9
:1001B000C7030008C7030008C7030008C7030008F7
:1001C000C7030008C703000800000000000000008B
:1001D0000000000000000000C7030008000000004D
:1001E000000000000000000000000000000000000F
:1001F0000000000000000000C7030008C70300085B
:10020000C7030008C703000800000000C703000878
:10021000C7030008C7030008C7030008C703000896
:10022000C703000800000000C7030008000000002A
:10023000C7030008C703000800000000C703000848
:10024000C7030008C7030008C7030008C703000866
:10025000C7030008C7030008C7030008C703000856
:10026000C7030008C7030008C7030008C703000846
:10027000C7030008C7030008C70300080000000008
:10028000C7030008C7030008C7030008C703000826
:1002900000000000C7030008C703000800000000BA
:1002A00000000000C7030008C7030008C7030008D8
:1002B000C7030008C7030008C7030008C7030008F6
:1002C000C7030008C7030008C703000800F002F8CE
:1002D00000F05CF80AA090E8000C82448344AAF184
:1002E0000107DA4501D100F051F8AFF2090EBAE882
:1002F0000F0013F0010F18BFFB1A43F0010318475A
:10030000D4360000F43600000A444FF0000C10F818
:10031000013B13F0070408BF10F8014B1D1108BF83
:1003200010F8015B641E05D010F8016B641E01F823
:10033000016BF9D113F0080F1EBF10F8014BAD1C73
:100340000C1B09D16D1E58BF01F801CBFAD505E091
:1003500014F8016B01F8016B6D1EF9D59142D6D3EB
:10036000704700000023002400250026103A28BF13
:1003700078C1FBD8520728BF30C148BF0B60704717
:100380001FB503F01AFB1FBD10B510BD00F058F8E3
:100390001146FFF7F5FF03F0A1FA00F076F803B479
:1003A000FFF7F2FF03BC00F07DF80000094880472A
:1003B00009480047FEE7FEE7FEE7FEE7FEE7FEE747
:1003C000FEE7FEE7FEE7FEE704480549054A064B5F
:1003D00070470000F9370008CD0200080828002403
:1003E000082E0024082A0024082A00244FF00002C6
:1003F00000B5134694469646203922BFA0E80C501B
:10040000A0E80C50B1F12001BFF4F7AF090728BFF5
:10041000A0E80C5048BF0CC05DF804EB890028BF71
:1004200040F8042B08BF704748BF20F8022B11F09A
:10043000804F18BF00F8012B704770477047704716
:10044000754600F02BF8AE4605006946534620F08D
:100450000700854618B020B5FFF7B6FFBDE820407D
:100460004FF000064FF000074FF000084FF0000B70
:1004700021F00701AC46ACE8C009ACE8C009ACE823
:10048000C009ACE8C0098D46704710B50446AFF30B
:1004900000802046BDE81040FFF781BF004870474C
:1004A000A827002401491820ABBEFEE72600020061
:1004B0007047FEE7F0B5002280231746B2241646A7
:1004C000222520F03F0081F0E0010EE000EA020C5E
:1004D00001EA030E5CEA0E0C01D07840614064082A
:1004E0004FEA37075B084FEA32026D1E46F1FF36CE
:1004F0006FEA050C7CEA060CE8D100F03F00F0BD85
:1005000070476421484302D000BF401EFCD17047B1
:1005100072B6FEE72DE9F04102F066FE2D4F002293
:100520002D4E2E4B551CC2EBC204BA5C03EBC4012A
:10053000C2EB421C15F0FF020CEB4C0506EB8505E7
:10054000D5F880C04FEA1C4C43F834C0D5F884403D
:100550004FEA14444C60D5F888404FEA14448C604C
:10056000D5F88C404FEA1444CC60D5F890404FEA5F
:1005700014440C61D5F894404FEA14444C61D5F80A
:1005800098404FEA14448C61D5F89C404FEA1444DB
:10059000CC61D5F8A0404FEA14440C62D5F8A440D1
:1005A0004FEA14444C62D5F8A8404FEA14448C62D8
:1005B000D5F8AC404FEA1444CC62D5F8B0404FEACD
:1005C00014440C63D5F8B4404FEA14444C63A9D0EA
:1005D000BDE8F0813C010024700F0024B026002407
:1005E00008B56423009393B20A460146014801F01E
:1005F00006FE08BD202700242DE9F05F28B190F801
:100600003510022904D0802141650120BDE8F09F0A
:10061000904C904B0168183C18338E4ADFF83C929E
:10062000A1428D4CDFF838E28E4FDFF83CB2DFF8A4
:100630003CA28F4D8F4E31D091422FD099422DD078
:10064000A1422BD0494529D0714527D0B94225D0A8
:10065000DFF810C20CF1180C61451FD0DFF808C29A
:10066000ACF1600C614519D0DFF8FCC1ACF1480C6D
:10067000614513D0DFF8F0C1ACF1300C61450DD00D
:10068000DFF8E4C1ACF1180C614507D0594505D03D
:10069000514503D0A94201D0B1422CD1DFF8B4C1F9
:1006A0004FF0040880F83580ACF1180C61451DD07E
:1006B00091421BD0994219D0A14217D0494515D07B
:1006C000714513D0B94211D06648183081420DD01F
:1006D00065486038814209D063484838814205D076
:1006E00061483038814201D05F481838086820F0EE
:1006F00001000860ABE0D1F800C02CF00E08DFF874
:1007000054C1C1F80080ACF1180C0168614527D0D4
:10071000914225D0994223D0A14221D049451FD0F2
:1007200071451DD0B9421BD0DFF838C10CF1180C4F
:10073000614515D0DFF830C1ACF1600C61450FD0D8
:10074000DFF824C1ACF1480C614509D0DFF818C1CD
:10075000ACF1300C614503D0DFF80CC1ACF1180CE2
:10076000D1F800C02CF0010CC1F800C0DFF8E48023
:100770004FF0010C0168A8F11808414546D091429C
:1007800044D0994242D0A14240D049453ED0714523
:100790003CD0B9423AD0334A1832914236D0324A2C
:1007A000603A914232D0304A483A91422ED02E4A95
:1007B000303A91422AD02C4A183A914226D05945D3
:1007C00024D0514522D0A94220D0B1421ED02A4A7D
:1007D00091421BD0284A1432914217D0264A28321F
:1007E000914213D0244A3C3291420FD0224A5032D7
:1007F00091420BD0204A6432914207D01E4A78328F
:10080000914203D01C4A8C32914218D1016E0A6881
:1008100022F480720A6090F85C20816D02F01F0261
:100820000CFA02F24A60D0E919124A60C16E31B185
:100830000A6822F480720A60D0E91C124A60002221
:10084000016D80F835C080F8342001B18847002060
:10085000DCE6000028000240580002407000024020
:1008600088000240A0000240700402408804024058
:10087000A0040240B8040240085402582DE9F84F81
:1008800003247A4D00234FF001094FF0B04B4FF095
:100890000F0AE4E009FA03F6324078D00F7907F046
:1008A0000307012F01D0022F1AD187684FEA430EA8
:1008B000D1F80CC004FA0EF827EA08070CFA0EFC6F
:1008C0004CEA070CC0F808C0476891F804C0B74369
:1008D000CCF3001C0CFA03FC4CEA070CC0F804C073
:1008E0000E79F643B6070BD0C6684FEA43088F6807
:1008F00004FA08FC26EA0C0607FA08F73743C76033
:100900000E7906F00306022E12D1DE080F694FEAB7
:10091000437C00EB8606B646366A4FEADC6C0AFA80
:100920000CF807FA0CF726EA08063743CEF82070D1
:100930000F7906684FEA430807F0030704FA08FC3A
:1009400007FA08F726EA0C06374307604E6816F4E4
:10095000403F1CD0464E376847F002073760366884
:100960009F0706F00206009623F0030606F1B04644
:10097000B6463F0FD6F80864DFF8F8800AFA07FC9D
:10098000404526EA0C0603D14FF0000C3AE065E042
:10099000DFF8E4C0604502D14FF0010C32E0DFF82F
:1009A000DCC0604502D14FF0020C2BE0DFF8D0C074
:1009B000604502D14FF0030C24E0DFF8C8C0604569
:1009C00002D14FF0040C1DE0DFF8BCC0604502D13D
:1009D0004FF0050C16E0DFF8B4C0604502D14FF0CF
:1009E000060C0FE0DFF8A8C0604502D14FF0070CFD
:1009F00008E0DFF8A0C0604502D14FF0090C01E02B
:100A00004FF00A0C0CFA07FC4CEA060CCEF808C4AE
:100A10004F68DBF80060FF0226EA020600D51643A5
:100A20005F46CBF80060D1F804C0DBF804605FEAF1
:100A30008C2C26EA020600D516437E606E684F684D
:100A400026EA0206BF0300D516436E602E684F6883
:100A500026EA0206FF0300D516432E605B1C0A68D7
:100A600032FA03F67FF416AFBDE8F88F8000005825
:100A7000F4440258000002580004025800080258CA
:100A8000000C0258001002580014025800180258B6
:100A9000001C0258002402580AB181617047090401
:100AA000FBE7000001488068704700004C0100240B
:100AB0000248816802781144816070474C0100242B
:100AC000032010B500F0D4F800F070FE0F4A104972
:100AD00014681368C4F3032203F00F038A5CC95C33
:100AE00002F01F0201F01F01D0400A4A20FA01F172
:100AF0001160094908600F2000F010F808B10120CA
:100B000010BD00F079F8002010BD00001844025814
:100B1000C43900085C0100245801002470B50D4D53
:100B200004462878A0B14FF47A71B1FBF0F00A497D
:100B30000968B1FBF0F001F09EFC48B9102C07D217
:100B400000222146501E00F073F800206C6070BD3A
:100B5000012070BD4C01002458010024F0B5154C53
:100B60004378211D0A1D23600378F3B143680B60AD
:100B7000057BC67A817A437B2D07847B45EA06652F
:100B8000C77B90F809C0067A90F800E045EAC140BA
:100B900040EA834040EA444040EA074040EA0C20F3
:100BA00040EA460040EA0E0001E0002008601060C4
:100BB000F0BD000098ED00E0BFF35F8F0448002116
:100BC0000368034A23F48033036070321160704776
:100BD00024ED00E0074A40F0010006497032106041
:100BE000086840F480300860BFF34F8FBFF36F8F09
:100BF0007047000024ED00E0054808B5016841F0A9
:100C000002010160006800F00200009008BD0000D1
:100C1000F4440258002809DB410900F01F02890052
:100C2000012001F1E0219040C1F80001704700006F
:100C30000E4BF0B41B680D46C3F30223C3F1070645
:100C4000042E00D90426191D072901D2002300E033
:100C5000DB1E012404FA06F19C40491E2940641E53
:100C6000994014402143F0BC02F027BE0CED00E097
:100C7000064900F0070210B54FF6FF040868044B60
:100C8000204040EA02201843086010BD0CED00E04F
:100C90000000FA05134970B50A68D243520705D51A
:100CA000096801F00701814213D118E00A6822F0B7
:100CB000070202430A60FFF7F5FE0A4D4FF47A7609
:100CC0000446083D07E000BFFFF7ECFE001BB04202
:100CD00001D9012070BD2868C0438004F4D40020ED
:100CE00070BD00000C4802582DE9FC5F0446FC4F23
:100CF00050F8241B0025DFF8ECA32E4600900801D5
:100D00001DD5206E50B1B0F5801F0CD0B0F5001F7E
:100D10000ED0B0F5401F1DD001250FE0386840F41B
:100D20000030386016E00221201D02F05DFB03E078
:100D30000098022102F0E8FB05000BD02E46208827
:100D4000C00523D5606D05281ED2DFE800F00C1128
:100D5000161B1B00226EDAF8001021F4401111431B
:100D6000CAF80010EBE7386840F40030386009E05A
:100D70000021201D02F038FB03E00098002102F062
:100D8000C3FB0546BDB100E001252E462088DFF8F3
:100D90005483400508F108082FD5D4F8A000B0F519
:100DA000C00F28D010DCB8B1B0F5001F19D0B0F5D5
:100DB000800F0FD11AE0626DDAF8001021F0070100
:100DC0001143CAF80010E1E7B0F5000F13D0B0F5F9
:100DD000200F10D001250FE0386840F40030386053
:100DE00009E00021201D02F0FFFA03E00098002135
:100DF00002F08AFB05468DB12E462088000530D5CD
:100E0000D4F8A400B0F1407F29D011DCC0B1B0F11A
:100E1000807F1AD0B0F1007F10D11BE0D4F8A02061
:100E2000D8F8001021F460011143C8F80010E4E77D
:100E3000B0F1806F13D0B0F1A06F10D001250FE09A
:100E4000386840F40030386009E00021201D02F0CD
:100E5000CBFA03E00098002102F056FB05468DB165
:100E60002E462068DFF87CB28001ABF1040B1FD561
:100E7000A06CD8B110280FD0202812D0302815D05F
:100E8000012514E0D4F8A420D8F8001021F0E06186
:100E90001143C8F80010E4E7386840F400303860C7
:100EA00004E00221201D02F09FFA05466DB12E4696
:100EB0002088C0042BD5A06DB0F5005F20D00DDCDC
:100EC000A0B1B0F5805F0FD115E0A26CDBF8001087
:100ED00021F030011143CBF80010E9E7B0F5405F95
:100EE00013D0B0F5804F10D001250FE0386840F4E2
:100EF0000030386009E00021201D02F075FA03E09F
:100F00000098002102F000FB054685B12E4620889E
:100F1000800429D5E06DB0F5403F23D010DC08B344
:100F2000B0F5803F14D0B0F5003F0FD115E0A26DB1
:100F3000DAF8001021F4E0411143CAF80010E6E7A6
:100F4000B0F5802F0ED0B0F5A02F0BD001250AE010
:100F50000121201D02F048FA03E00098012102F06F
:100F6000D3FA05468DB12E46208840042AD5D4F800
:100F7000A800B0F1405F23D010DC08B3B0F1805F6F
:100F800014D0B0F1005F0FD115E0E26DDAF8001077
:100F900021F4E0211143CAF80010E5E7B0F1804FD9
:100FA0000ED0B0F1A04F0BD001250AE00121201D89
:100FB00002F01AFA03E00098012102F0A5FA0546B2
:100FC0006DB12E46208800041FD5A06ED8B1B0F1B7
:100FD000805F0ED0B0F1005F10D0012514E0D4F88E
:100FE000A820D8F8001021F0E0411143C8F8001003
:100FF000E8E7386840F40030386004E00121201D43
:1010000002F0F2F905466DB12E462068C0011ED5EA
:10101000606CD0B101280ED0022811D0032814D062
:10102000012513E0A26EDAF8001021F040511143BF
:10103000CAF80010E9E7386840F40030386004E08E
:101040000221201D02F0D0F9054665B12E46206828
:10105000400257D52448016841F480710160FFF7D0
:1010600021FD81460EE0626CDBF8001021F00301E7
:101070001143CBF80010EAE7FFF714FDA0EB0900DD
:1010800064283DD818480068C005F5D575BBDFF861
:101090005490B4F8AC1009F12009D9F8000001F41B
:1010A000407100F44070884211D0D9F80010D9F88E
:1010B000002021F4407142F48032C9F80020D9F8B0
:1010C000002022F48032C9F80020C9F80010D4F8BA
:1010D000AC00B0F5807F28D1FFF7E4FC019020E060
:1010E0002C440258504402580048025809E000BFFE
:1010F000FFF7D8FC0199411A41F28830814210D99A
:1011000003252E462078DFF82494C0073DD0606F79
:10111000182838D026DC80B3082829D0102825D1FB
:101120002CE0D9F800008007E2D5D4F8AC10C1F368
:1011300001200328FE480DD0016821F47C51016094
:10114000B4F8AC20D9F80010C2F30B021143C9F86F
:101150000010D7E7F74A036802EA111223F47C5122
:101160001143ECE720280ED028280CD001250BE0F5
:101170000121201D02F038F904E004E0009801216B
:1011800002F0C2F905465DB12E46207880071ED5D3
:10119000206F062819D2DFE800F0160C111616167B
:1011A000626FD9F8001021F038011143C9F800101E
:1011B000EBE70121201D02F017F903E0009801215F
:1011C00002F0A2F9054675B100E001252E4620780F
:1011D00040071FD5D4F88C00062819D2DFE800F0AC
:1011E000160C11161616226FD9F8001021F00701FF
:1011F0001143C9F80010EAE70121201D02F0F4F8BC
:1012000003E00098012102F07FF905469DB100E05E
:1012100001252E46207880062BD5D4F88800B0F121
:10122000405F24D011DC10B3B0F1805F15D0B0F175
:10123000005F10D116E0D4F88C20D8F8001021F00F
:1012400007011143C8F80010E4E7B0F1804F0ED059
:10125000B0F1A04F0BD001250AE00021201D02F0C3
:10126000C3F803E00098022102F04EF905468DB163
:101270002E46207840062BD5D4F89400B0F5406F68
:1012800024D011DC10B3B0F5806F15D0B0F5006F2D
:1012900010D116E0D4F88820D9F8001021F0E041F0
:1012A0001143C9F80010E4E7B0F5805F0ED0B0F547
:1012B000A05F0BD001250AE00021201D02F094F868
:1012C00003E00098022102F01FF905468DB12E4679
:1012D000207800062BD5D4F89800B0F5C04F24D064
:1012E00011DC10B3B0F5005F15D0B0F5804F10D110
:1012F00016E0D4F89420D8F8001021F4E0511143FE
:10130000C8F80010E4E7B0F5004F0ED0B0F5204F5C
:101310000BD001250AE00021201D02F065F803E052
:101320000098022102F0F0F8054645B12E462078DB
:1013300000071CD5E06FB0F5805F0AD00FE0D4F84D
:101340009820D8F8001021F460411143C8F800102B
:10135000EDE70098022102F0D7F800B10126E26F14
:10136000D9F8001021F440511143C9F80010207839
:10137000C00613D5D4F89000B0F5807F05D1009851
:10138000022102F0C1F800B10126D4F89020D8F86B
:10139000001021F440711143C8F8001020680003C8
:1013A00016D5D4F89C0038B1B0F5803F09D0B0F51F
:1013B000003F0BD001250AE00021201D02F014F8A7
:1013C00003E00098022102F09FF8054685B12E4601
:1013D0002068400322D5D4F88000B0F5801F11D0DA
:1013E000B0F5001F13D0B0F5401F15D0012514E053
:1013F000D4F89C20D8F8001021F440311143C8F8EB
:101400000010E5E7386840F40030386004E00098E8
:10141000012102F079F8054655B12E462068C00337
:101420001CD5E06C70B1B0F5803F10D0012514E000
:10143000D4F88020D9F8001021F440111143C9F8E4
:101440000010EBE7386840F40030386004E0022117
:10145000201D01F0C9FF0546CDB12E462068800051
:1014600005D50098022102F04FF800B1012620684E
:1014700080031BD5A06FB8B1B0F5807F10D0B0F558
:10148000007F11D0B0F5407F0ED001250DE0E26C59
:10149000DBF8001021F480311143CBF80010DDE7B8
:1014A000386840F400303860F5B32E462068C0023A
:1014B00007D5E26EDAF8001021F000411143CAF8B6
:1014C00000102068800207D5626EDAF8001021F063
:1014D00080711143CAF800102068400009D51448F3
:1014E000016821F4004101600168D4F8B020114383
:1014F00001602068002807DA226DDBF8001021F077
:1015000040511143CBF800102068000208D5D4F8F0
:101510008420D9F8001021F440011143C9F80010CB
:101520009EB10120BDE8FC9F06E000005444025833
:1015300010440258CFFFFF00A26FD9F8001021F429
:1015400040711143C9F80010B0E70020EAE700003D
:101550002DE9F05F04000F467ED0DFF83882D8F81E
:10156000000000F00F00B8420CD2D8F8001021F0B3
:101570000F013943C8F80010D8F8000000F00F0040
:10158000B84269D12078844D40070AD5206929687E
:1015900001F07001884204D9296821F070010143EB
:1015A000296020787C4E361D00070AD560693168B5
:1015B00001F07001884204D9316821F070010143C3
:1015C00031602078C0060AD5A069316801F4E06175
:1015D000884204D9316821F4E06101433160207808
:1015E000DFF8B4B180060BF1080B0CD5E169584661
:1015F000DBF8002002F07002914204D9026822F068
:1016000070020A430260207880070AD5E0682968E2
:1016100001F00F01884204D9296821F00F0101432C
:1016200029602078C0073ED05B49A2682868183935
:1016300020F47060104328606068022818D00328E6
:1016400019D00968012819D0490700294ADADFF8BA
:1016500048A1AAF1080A00E044E0DAF8002022F0EC
:1016600007020243CAF80020FFF71CFA814612E085
:1016700009688903E9E709688901E6E7C905E4E73C
:10168000FFF710FAA0EB090141F28830814202D93C
:101690000320BDE8F09F6168DAF8000000F0380030
:1016A000B0EBC10FECD1207880070AD5E06829683B
:1016B00001F00F01884204D2296821F00F01014393
:1016C0002960D8F80010404601F00F01B9420BD94B
:1016D000016821F00F0139430160006800F00F003C
:1016E000B84201D00120D4E7207840070AD520690C
:1016F000296801F07001884204D2296821F0700144
:1017000001432960207800070AD56069316801F03B
:101710007001884204D2316821F0700101433160C8
:101720002078C0060AD5A069316801F4E0618842DA
:1017300004D2316821F4E0610143316020788006F1
:101740000CD5E1695846DBF8002002F070029142A6
:1017500004D2026822F070020A43026000F026F808
:101760000E492A682B68C2F3032203F00F038A5C38
:10177000C95C02F01F0201F01F01D040084A20FAA4
:1017800001F111600749086007480068BDE8F05F93
:10179000FFF7C4B90020005218440258C4390008A9
:1017A0005C0100245801002450010024454970B513
:1017B00045480968434B103B11F0380208D001112D
:1017C000082A03D0102A0BD0182A0BD0084670BD67
:1017D00019688906FBD51968C1F3C101C84070BDFD
:1017E0003A4870BD3749374D18310C1D24350A6809
:1017F000096826682D6802F0030406F00102C1F3AF
:101800000511C5F3CC0515FB02F200EE102AB8EE67
:10181000400AE9B32F4ADFED2E0AB7EE001A6CB189
:10182000DFED2D1A012C01D0022C43D002EE101A4C
:101830001068F8EE422A81EEA22A1EE01C68A40677
:1018400011D51B6801EE901A1168C3F3C103F8EEBD
:10185000612AD84001EE900AC1F30800F8EE611A3F
:1018600081EEA22A0BE001EE901ADFED1C2A00BFE8
:10187000F8EE611A106882EEA12AC0F3080001EEAA
:10188000900AF8EE611A40EE201A31EE810A00E06B
:1018900015E022EE000A1068C0F34620401C00EE5E
:1018A000900AF8EE600A80EE201ABCEEC10A10EE33
:1018B000100A70BD01EE901ADFED092AD8E700206A
:1018C00070BD0000104402580090D00300127A004E
:1018D00000000039304402580024744A0024744C3B
:1018E0000024F44A2DE9F04704007DD0FF4F207812
:1018F000FE4D1837DFF8F483103DC00748D0D8F804
:101900000000396800F03800102815D0182803D1DD
:1019100001F0030002280FD06068B0F5803F12D0BC
:1019200010B1B0F5A02F18D0286820F480302860BE
:10193000286820F4802009E02868800328D56068A2
:101940000028D2D024E0286840F480302860606805
:1019500088B1FFF7A7F8064609E0286840F4802020
:101960002860F0E7FFF79EF8801B64287ED828687F
:101970008003F7D50CE0FFF795F8064605E000BFB9
:10198000FFF790F8801B6428F0D828688003F7D40C
:101990002078800756D5D8F80000DFF850933968D2
:1019A00010F03800A9F10C090ED0182801D18807D1
:1019B0000AD0E068A8B3296821F019010143296021
:1019C000FFF770F8064628E02868400702D5E0686F
:1019D00000288AD0E168286820F0190008432860B0
:1019E000FFF760F8064606E0D2E000BFFFF75AF8BE
:1019F000801B0228BAD828684007F7D5217CD9F87F
:101A0000002022F0FE4242EA0161C9F8001019E00C
:101A1000FFF748F8801B0228A8D828684007F7D5A8
:101A2000ECE7FFE7286820F001002860FFF73AF8AC
:101A3000064604E0FFF736F8801B022896D828688F
:101A40004007F7D42078C00646D5D8F80000DFF864
:101A50009C92396800F03800A9F10409082812D0D6
:101A6000182805D101F00300012800E0CEE00AD0DB
:101A7000E0690028286820D040F080002860FFF747
:101A800011F8064615E02868C00502D5E0698028EF
:101A90007ED194F82010D9F8002022F07C5242EA3E
:101AA0000161C9F8001017E0FEF7FCFF801B022857
:101AB000A0D82868C005F7D5EBE720F080002860A3
:101AC000FEF7F0FF064604E0FEF7ECFF801B02285D
:101AD00090D82868C005F7D42078000729D5834816
:101AE0006169643000298146016811D041F001012B
:101AF0000160FEF7D7FF064605E000BFFEF7D2FF04
:101B0000801B022888D8D9F800008007F6D510E09D
:101B100021F001010160FEF7C5FF064605E000BFA8
:101B2000FEF7C0FF801B022870D8D9F8000080079C
:101B3000F6D42078800623D5A0690028286810D024
:101B400040F480502860FEF7ADFF064605E000BF78
:101B5000FEF7A8FF801B022858D828688004F7D514
:101B60000EE020F480502860FEF79CFF064604E05B
:101B7000FEF798FF801B022848D828688004F7D415
:101B80002078400751D5DFF86891D9F8001000E0BF
:101B90000DE141F48071C9F80010FEF783FF06469D
:101BA00005E000BFFEF77EFF801B64282ED8D9F821
:101BB0000000C005F6D54D4EA068603601280AD059
:101BC00008B1052813D0306820F00100306030687B
:101BD00020F0040002E0306840F001003060A068AE
:101BE00041F2883A98B1FEF75DFF81460AE030681D
:101BF00040F004003060EEE7FEF754FFA0EB09016F
:101C0000514503D830688007F6D50EE072E0FEF744
:101C100049FF814606E000BFFEF744FFA0EB090143
:101C2000514567D830688007F6D4606AF0B3414602
:101C3000DFF8B88008F120080968C1F3C201032960
:101C400077D00228286820F08070286003D0FEF743
:101C500029FF044680E0FEF725FF064605E000BFA9
:101C6000FEF720FF801B022873D828688001F7D474
:101C7000E26A40F2F331386854F8283F884340EA7A
:101C8000021018433860217B4FF4FE0C22894FF07C
:101C9000FE47268A4902207D521E761EA1F500715C
:101CA00089B20CEA0646C2F3080200E081E0114363
:101CB000401E314307EA00620C4811430B4A1C30B6
:101CC000C8F800102432016821F001010160116898
:101CD0004FF6F876236AB14341EAC3011160016807
:101CE000A26921F00C011143016004E01044025884
:101CF000004802582DE00168E26921F00201114319
:101D00000160016841F480310160016841F40031F3
:101D10000160016841F480210160016841F0010126
:101D20000160286840F080702860FEF7BBFE044622
:101D300005E015E0FEF7B6FE001B022809D828686A
:101D40008001F7D535E000BFFEF7ACFE001B02288E
:101D500002D90320BDE8F08728688001F4D428E088
:101D600039680128D8F8000021D0A26A01F00303E5
:101D700093421CD1E26AC1F305118A4217D1216B4B
:101D8000C0F30802491E8A4211D1616BC0F346229A
:101D9000491E91420BD1A16BC0F30642491E9142EC
:101DA00005D1E16BC0F30660491E814201D00120DC
:101DB000D0E70020CEE770472DE9F04701680446E0
:101DC00000200E69D1F81480D1F8089094F8817041
:101DD00006EA080515F0600F08D1690706D5616F9E
:101DE00020468847216F20468847012005F04101A1
:101DF000012905D1690703D4216F204688470120B6
:101E000005F02201022906D1690704D4616F20463A
:101E1000BDE8F047084700284AD128074FF0010ADB
:101E20005AD52068816941F0080181612068816983
:101E300041F0100181612068816941F40061816194
:101E40002068016921F0080101612068806810F4B0
:101E5000404F1ED021E0E0680F2806D92068616E4F
:101E6000006B0860606E001D0DE0616E0728206841
:101E700004D9008E0880606E801C04E090F8300069
:101E80000870606E401C6066B4F86A00401EA4F8DA
:101E90006A00B4F86A000028DDD1204601F0CAFBD0
:101EA00084F881A0D4F8840020B12046FFF783FF96
:101EB000BDE8F087052F07D0042F09D0032FF7D1F5
:101EC000204600F0D6FAF3E7204600F0D3FAEFE719
:101ED000204600F093F9EBE75FEA085007D530079A
:101EE00005D52068816941F400618161E0E715F45E
:101EF000587FDDD068060AD5D4F8840040F004008D
:101F0000C4F884002068816941F040018161A8051E
:101F10000AD5D4F8840040F00100C4F88400206899
:101F2000816941F400718161E8050AD5D4F8840023
:101F300040F00800C4F884002068816941F4807191
:101F40008161A8060AD5D4F8840040F08000C4F866
:101F500084002068816941F020018161D4F8840007
:101F60000028A5D0206840F26B32C9F381310368A4
:101F7000032923F0010101602068016921EA0201BF
:101F8000016102D084F881A08FE72068104D81683C
:101F900021F440418160E06F50B10565E06FFEF7CC
:101FA0002BFB28B1D4F8840040F04000C4F8840032
:101FB000A06F002887D00565A06FFEF71DFB0028E5
:101FC00085D0D4F8840040F04000C4F884006FE766
:101FD000F13600082DE9F047040029D0504A4FF0AF
:101FE000000920684F4B504D9042C4F8289006D00D
:101FF000984204D0A84202D0E1680F2918D8E168BD
:102000004FF0010AE76B0831C9080AEB5716714314
:10201000904205D0984203D0A84201D0082907D8A1
:10202000904203D0984201D0A84204D1102902D98D
:102030000120BDE8F08794F8810020B9204684F89B
:10204000809000F073F8022084F881002068016815
:1020500021F0010101602168A0698A68B0F1806FF8
:1020600002F4F81010D16268B2F5800F01D01AB1F5
:102070000AE0A26B22B107E0A26BB2F1805F03D14C
:102080000A6842F480520A60A66AE169E26B256838
:102090003143E368024311431943A960D4E90D02B7
:1020A000D4E90571636A25691843D4F820C00A434E
:1020B000266810432843A56D3843D4E90182D4E94A
:1020C000123140EA0C0040EA08000843104318436C
:1020D0002843F060606868B92068816821F4C051C5
:1020E00041F4006181602068816821F4C06141F49D
:1020F000806181602068016D21F0010101656068E7
:10210000400206D52068626DC16821F0004111438C
:10211000C160C4F8849084F881A0002089E70000A1
:102120000030014000380040003C0040F0B5B3B042
:10213000044614212DA8FEF759F9B4216846FEF78C
:1021400055F92A49206888424DD102AF0224002166
:102150007822192387E81C000625CDE90541801463
:102160001690CDE9000520266846CDE90761FEF707
:10217000BBFD08B1FEF7CCF91D48016841F4804170
:102180000160006800F48040329019480838016806
:1021900041F004010160016801F00401329101681D
:1021A00041F00201016000680527CDE92D5400F0DF
:1021B000020001262DA9CDE931700E48CDE92F642A
:1021C000FEF75CFB2DA9B00281E851000A48CDE979
:1021D0003047FEF753FB002224201146FEF728FD6E
:1021E0002420FEF717FD33B0F0BD0000003800409A
:1021F000E8440258000802580004025870472DE9CC
:10220000FF4F83B090F8801004461D46002093468F
:10221000109F0129019014D04FF0010A84F880A08A
:10222000FEF740FC804694F8810063680021012895
:102230002E464FF480020CD0934208D1A36833B9E4
:1022400003E0022007B0BDE8F08F042801D002208F
:1022500037E0049898B3BBF1000F31D07DB394F808
:102260008100042802D0052084F8810089460846B0
:10227000C4F88410C4F864B0A4F86A50A4F8685094
:102280000499E165A4F86250A4F860502067606783
:10229000206841686FF30F0129434160206801689D
:1022A00041F0010101606068904204D1206801683A
:1022B00041F400710160E0680F2835D846E0FFE77F
:1022C000012084F88010BDE72068416989070DD599
:1022D00065B1E16D09680162E06D001DE065B4F86B
:1022E0006200401EA4F86200B4F8625048F208028E
:1022F0002068416911420DD066B1006B616E0860C3
:10230000606E001D6066B4F86A00401EA4F86A00A2
:10231000B4F86A60FEF7C6FBA0EB0800B84202D32F
:10232000781C01D004E01FB155EA0600CCD175E05D
:10233000204601F07FF9D4F8842084F8809042F49C
:102340008070C4F8840084F881A08EE007282ED81D
:1023500061E02068416989070DD565B1E16D0988A3
:102360000184E06D801CE065B4F86200401EA4F8B2
:102370006200B4F8625020684169C9070DD066B1A7
:10238000008E616E0880606E801C6066B4F86A0022
:10239000401EA4F86A00B4F86A60FEF783FBA0EB65
:1023A0000800B84202D3781C01D051E08FB355EA3F
:1023B0000600CED132E02068416989070ED56DB1A3
:1023C000E16D097880F82010E06D401CE065B4F8FC
:1023D0006200401EA4F86200B4F8625020684169AF
:1023E000C9070ED06EB190F83000616E0870606E53
:1023F000401C6066B4F86A00401EA4F86A00B4F895
:102400006A60FEF74FFBA0EB0800B84202D3781CCD
:1024100001D01DE0E7B155EA0600CCD100224346C9
:1024200008212046009701F070F928B1D4F8840003
:1024300040F02000C4F88400204601F0FBF884F846
:1024400081A0D4F8841084F8809081B10120F9E64D
:10245000204601F0EFF8D4F8842084F8809042F40C
:102460008071C4F8841084F881A00320EAE6019802
:10247000E8E670477047401EB0F1807F10B501D389
:10248000012010BD4FF0E02460610F21601701F0C2
:1024900014FA0020A0610721216110BDFEE70000B1
:1024A00010B50024034808212246FEF7F5FA20461D
:1024B00010BD0000000802582DE9F0412F4C43F6F2
:1024C000FF752F4B00211C202A46E566283400F0BA
:1024D000CFFD2B4A02211C2000F042FD284E30681F
:1024E00071684A2100273346C0F39110C4F82C03C9
:1024F0006170462020700B202268394600F0B8FD3C
:10250000022132460B2000F02BFD30687168062254
:1025100004213346C0F39110C4F8E80262710C2024
:1025200021710021626800F0A3FD022132460C20D7
:1025300000F016FD306871680021A7603346C0F3D3
:1025400091103A46C4F8EC020D2000F091FD606D48
:102550000021334640F480526265202000F088FD5F
:10256000002133461C202A46656400F081FDBDE849
:10257000F0414FF40070FDF7C4BF0000700F00245D
:10258000080000247CB5613B14467A28DDB203D0F4
:102590006A4600F0E5FC08B101207CBD05EB850032
:1025A0009DF80310204401709DF8041041709DF8BF
:1025B000051081709DF80610C1709DF8071001711B
:1025C00040F23F10FDF79DFF00207CBD2DE9FF4F3D
:1025D0008BB0984600211446074604910591049952
:1025E00005980122049162F3C7100590049A05989A
:1025F00000250C99049265F386100590049A0598BD
:10260000049261F34500059004990598BA0967F3AF
:102610009F61049162F3000005900498059965F3A9
:1026200019600490059104980599FF26089466F3B3
:10263000971004900591AB4604980599FDF73AFF71
:102640000499059A60F30501049105924FF400790D
:102650009DF8140000228DF8000049469DF81300F3
:102660008DF801009DF812008DF802009DF8110010
:10267000DFF818A18DF803009DF810008DF8040014
:102680005046FEF709FA052221466846FDF7A8FFE5
:10269000012249465046FEF7FFF961782078090685
:1026A0006A18A178684109045218E1786841090262
:1026B000521840EBE1702179511802916841039062
:1026C00040F20720FDF71DFF002249465046FEF765
:1026D000E3F98DF800608DF801608DF802608DF8E7
:1026E00003608DF804602CE000224E4649465046B7
:1026F000FEF7D2F9052221466846FDF771FF012257
:1027000031465046FEF7C8F954F8030CD4F80110CE
:102710000290039102A80C9A394600F029F900288A
:10272000F8D102980399FDF7C5FE01460298039A75
:1027300000F03F00814201D04FF0000B641D6D1C82
:10274000EDB24545D0D3012249465046FEF7A4F9E3
:102750007A2F17D1089A66230C994320FFF712FFAE
:10276000012810D0089A67230C994420FFF70AFF2C
:10277000012808D0089A68230C994520FFF702FF2A
:10278000012800D058460FB0BDE8F08F0004025871
:102790002DE9F74F4FF000080E46082183465B48AD
:1027A00047464246FEF778F94FF4FA60FDF7A9FE76
:1027B000DFF85CA100247AE0C4EB44104FF000097C
:1027C00000EB400248460AEB8205C5F87491315D82
:1027D00061F35130C5F87401305D05F5BA754D49A6
:1027E00000F05CFD41F6BE10FDF78BFEC5F80090D1
:1027F0004846315D61F351302860305D454900F055
:102800004DFD41F6BE10FDF77CFE28680021414BCE
:1028100020F4407040F4E0522A600120C2F34439B1
:1028200000F026FC40F6D710FDF76BFEA868394B88
:1028300020F40030A860DAF8080020F40031CAF86B
:102840000810315D0320AA6800F012FC40F6D71092
:10285000FDF757FE315D01202E4A00F081FB2D4926
:102860000A6807404868C2F39110286040F6D71004
:10287000FDF747FE2868C0F34431494504D102986A
:1028800098B10121015510E008F10100C0B25FEAE2
:10289000000808D002984FF0000810B102990020FB
:1028A0000855012701E0641EE4B2641CE4B25C45F3
:1028B00082D327BBDAF800000021164B544640F4BF
:1028C000F852CAF80020012000F0D2FB40F6D715DC
:1028D0002846FDF716FE01210E4A084600F040FB8F
:1028E0000C48016840680122C1F39110C4F87401DA
:1028F00006480821FEF7D0F82846FDF702FE41F60B
:102900007710FDF7FEFD3846BDE8FE8F000802583F
:10291000700F00240800002470B51446094A4000D6
:10292000C4EB4413801F03EB4303002502EB830336
:1029300001FA00F214202146DA64034B00F098FB00
:10294000284670BD700F00240800002407490022AB
:102950004FEA0200C0EB4013401C03EB4303C0B23C
:1029600001EB83030F281A63F4D37047700F002420
:10297000F0B5F94C0023236063600368456826685E
:10298000656863F3050626606560036845689E090F
:102990002368656866F3971323606560036845687C
:1029A0001E0E2368656866F3196323606560056819
:1029B0004368AE0E256863F38616636866F39F6509
:1029C0002560B60966F30003636003684368256801
:1029D0005E086368256066F34503636003684368C7
:1029E00025689E096368256066F386136360036843
:1029F00043682568DE096368256066F3C713636072
:102A00000368436827686668C2EB42121B0AD34D0D
:102A100002EB4202276063F31F26A4F118036660ED
:102A2000782905EB820207D07A2973D07B2972D0EE
:102A3000197803F12002B8E104684568C649A40E7C
:102A4000183965F38614623C4968491C172C16D264
:102A5000DFE804F0162028303840485058626A7287
:102A6000798087158E15151515150C0004684068BA
:102A7000C4F39110C2F88000040408E059606DE2CC
:102A800004684068C4F39110C2F884000404002C68
:102A9000F4DA63E204684068C4F39110C2F8880075
:102AA0000404F4E704684068C4F39110C2F88C0091
:102AB0000404ECE704684068C4F39110C2F8900085
:102AC0000404E4E704684068C4F39110C2F8940079
:102AD0000404DCE704684068C4F39110C2F898006D
:102AE0000404D4E704684068C4F39110C2F89C0061
:102AF0000404CCE704684068C4F39110C2F8A00055
:102B00000404C4E704684068C4F39110C2F8A40048
:102B10000404BCE733E0EFE004684068C4F39110BC
:102B2000C2F8A8000404B2E704684068C4F3911036
:102B3000C2F8AC000404AAE701684068C1F3911030
:102B4000C2F8B0000AE201684068C1F39110C2F80F
:102B5000B40003E201684068C1F39110C2F8FC00C0
:102B6000FCE101684068C1F39110C2F80001F5E191
:102B700001684068C1F39110C2F8BC00EEE104683E
:102B800043687749A40E63F38614672C47D008DCAA
:102B9000632C09D0642C0CD0652C1CD0662CD1D1B0
:102BA0002BE0682CCED171E00368446852F8F44FF2
:102BB00003E00368446852F8F84FC3F38D1344EA06
:102BC0008303136004684068C4F39110084303EA68
:102BD00080001060C2E104684368D2F80431C4F395
:102BE0008D142343C2F8043104684068C4F3911083
:102BF00008430340C2F80431B0E104684368D2F8E6
:102C00000831C4F38D142343C2F8083104684068C6
:102C1000C4F3911008430340C2F808319EE10368F1
:102C20004468C3F38D14D2F80C312343C2F80C313D
:102C300004684568C4F391140C432340C2F80C3176
:102C400001684468890901F4003143EA5101C2F87E
:102C50000C1103684468C3F3911363F48033194083
:102C6000C2F80C1101684368890901F4E033D2F815
:102C700008111943C2F8081103684068C3F39110A2
:102C800060F4E0300140C2F8081167E1036844686D
:102C90009B0903F44044D2F80C312343C2F80C31B1
:102CA00004684568C4F3911464F440442340C2F8B6
:102CB0000C3103684468C3F38D14D2F810312343F8
:102CC000C2F8103104684568C4F391140C432340E2
:102CD000C2F81031016843688B09116CC3F30143DA
:102CE000194342F8401F03684068C3F3911060F035
:102CF00003000140116031E10368446819499B0EEB
:102D000064F386136A2B22D008DC662B0BD0672B6A
:102D10000ED0682B11D0692B3AD113E06B2B23D046
:102D20006C2B35D125E00468436852F8CC3F24E091
:102D30000468436852F8D03F1FE00468436852F8C3
:102D4000D43F1AE00468436852F8D83F15E004689D
:102D5000436852F8DC3F10E018000024700F002494
:102D600000C0FFFF0000FEFF0468436852F8E03F28
:102D700003E00468436852F8E43FC4F3901423432B
:102D8000136004684068C4F3911008430340136063
:102D9000E4E003684368545CC3F34403A34202D1F4
:102DA000491CC9B203E0491EC9B20029F1D1026829
:102DB0004368920E63F38612342A75D010DC2F2AF2
:102DC0003DD006DC012A13D0022A1ED00D2A1BD1C9
:102DD00028E0302A40D0322A4BD0332A14D155E093
:102DE000353A062A10D2DFE802F06C798693A0AD5E
:102DF00002684068C1EB411000EB400005EB800128
:102E0000C2F39110C1F87401A8E002684068C1EBF8
:102E1000411000EB400005EB8001C2F39110C1F8B6
:102E200078019BE002684068C1EB411000EB400074
:102E300005EB8001C2F39110C1F8A4018EE0026895
:102E40004068C1EB411000EB400005EB8001C2F38C
:102E50009110C1F82C0281E002684068C1EB41107A
:102E600000EB400005EB8001C2F39110C1F8300285
:102E700074E002684068C1EB411000EB400005EBD4
:102E80008001C2F39110C1F8380267E0026840681F
:102E9000C1EB411000EB400005EB8001C2F3911043
:102EA000C1F83C025AE0FFE702684068C1EB4110FC
:102EB00000EB400005EB8001C2F39110C1F8400225
:102EC0004CE002684068C1EB411000EB400005EBAC
:102ED0008001C2F39110C1F844023FE002684068EB
:102EE000C1EB411000EB400005EB8001C2F39110F3
:102EF000C1F8480232E002684068C1EB411000EBC3
:102F0000400005EB8001C2F39110C1F84C0225E0AE
:102F100002684068C1EB411000EB400005EB800106
:102F2000C2F39110C1F8500218E002684068C1EB8A
:102F3000411000EB400005EB8001C2F39110C1F895
:102F400054020BE002684068C1EB411000EB400006
:102F500005EB8001C2F39110C1F858020020F0BDCA
:102F60002DE9FF410023144600930193009B019A31
:102F70000125009365F3C7120192009D019B002279
:102F8000009562F386130193009D019B009561F308
:102F900045030193009B019960F39F6300938009AF
:102FA00060F3000101910098019962F319600090AB
:102FB00001910099019862F3971100910190009896
:102FC0000199FDF777FA009A019960F305020092E2
:102FD00001914FF400759DF8040000228DF808005F
:102FE00029469DF803008DF809009DF802008DF830
:102FF0000A009DF801001D4E8DF80B009DF80000A1
:103000008DF80C003046FDF747FD0522214602A849
:10301000FDF7E6FA012229463046FDF73DFD40F274
:103020003F173846FDF76DFA002229463046FDF776
:1030300033FD0522214602A8FDF7D2FA01222946D6
:103040003046FDF729FD3846FDF75BFA20686168D8
:10305000FDF730FA2168626801F03F01884203D130
:10306000002004B0BDE8F0810120FAE70004025816
:103070007FB500251C4600950195009E019B01250A
:10308000009665F3C7130193009E019B009665F3BC
:10309000861300250193009E019B009661F3450372
:1030A0000193009B019960F39F630093800960F393
:1030B000000101910099019865F319610091019057
:1030C0000099019862F3971100910190009801997D
:1030D000FDF7F0F9009A019960F305020092019161
:1030E0004FF400759DF8040000228DF80800294671
:1030F0009DF803008DF809009DF802008DF80A0084
:103100009DF801000F4E8DF80B009DF800008DF822
:103110000C003046FDF7C0FC0522214602A8FDF751
:103120005FFA012229463046FDF7B6FC2068616847
:10313000FDF7C0F92168626804B0002001F03F018A
:1031400070BD0000000402587FB5FFF7FFFB20A50B
:1031500000213CCD8DE83C00214A1160516002F114
:10316000280000F0EEFB00BFFFF79AF90028FBD122
:10317000002269460420FFF70BFB0028F8D0FFF778
:103180009BF90224002122460820FFF7C5FB0021FD
:1031900022460720FFF7C0FB641CE4B2042CF1D9DF
:1031A000104D00246E46A86B40F40030A863315DDA
:1031B0000F200B4BAA6BFFF75BFF641CE4B2042CDF
:1031C000F5D9074B0021AA6B0F20FFF751FF7FBDF8
:1031D0000102030405060708090A0B0C0D0E0F0077
:1031E00008000024700F00242DE9F047DFF8A080CC
:1031F0000024284E4FF4FA6AC4EB4411254B01EB2E
:103200004101183B08EB8100D0F8A41141F40042C1
:10321000C0F8A421315D0D20FFF72AFF5046FDF7CD
:1032200070F9641C042CE7DBDFF86C9001270024A4
:103230001223C4EB4411C1EB042101EB0905315DFC
:10324000782005F10B02FFF7C1F9012800D1002712
:10325000315D0E237B2005F1A602FFF7B7F90128A7
:1032600000D10027641C042CE2DB5046FDF749F92D
:10327000D8F830100D20074B21F40042C8F8302058
:10328000183B0021FFF7F4FE3846BDE8F087000048
:10329000700F002420000024600100240A4601462B
:1032A00010B500240120FFF75BFE204610BD000092
:1032B0002DE9F04786B014216846FDF797F82E48AF
:1032C000016841F080010160016801F08001059111
:1032D000016841F004010160016801F004010591F9
:1032E000016841F002010160016801F002010591ED
:1032F000016841F00801016000680022DFF87C806D
:10330000282100F0080005904046FDF7C5FBDFF8D6
:103310007090012208214846FDF7BEFB0122DFF82C
:1033200064A0570250463946FDF7B6FB00246946B3
:10333000012540460294CDE90054FDF79FFA02268C
:103340000394282069468DE861004046FDF796FA0F
:1033500008200090CDE90154694648460394FDF7E2
:103360008DFA00976946CDE9015650460396FDF760
:1033700085FA06B0BDE8F087E0440258000802581C
:10338000000C02580004025870B5144807224FF48C
:103390008005114E00212C01C0E9021201614FF09D
:1033A000C043C0E90514C0E90731416222018162CE
:1033B000C162C0E90D21C163016441648164C164DB
:1033C000016541658165C0E90065FEF703FE0028DF
:1033D00001D072B6FEE770BD0038004020270024FF
:1033E000FEE7FEE7704700002DE9F047454D044633
:1033F00089464FF0000A2868C04380070AD0414E32
:10340000283E306820F080603060FDF74BFB0746B7
:10341000B04608E00120BDE8F08700BFFDF742FBA1
:10342000C01B022867D8D8F800000001F6D4206835
:1034300029684FF4FE0721F47C313E0241EA003056
:103440002860207AA389B4F804C040022D4D2D498C
:103450005B1E227CACF1010C1035091DA0F500703B
:1034600080B2521ECCF3080C07EA034340EA0C007A
:10347000184306EA0262104328600868626920F077
:10348000C000104308600A68A06922F020020243CD
:103490000A60281D0A6822F010020A6002684FF6CE
:1034A000F873E4699A4342EAC40202600868B9F119
:1034B000000F40F010020A6011D00868B9F1010F46
:1034C00011D040F400100860D8F80000444640F0E5
:1034D0008060C8F80000FDF7E5FA05460DE00868D1
:1034E00040F40020EFE740F48010ECE7FDF7DAFA53
:1034F000401B022801D903208DE720680001F5D583
:10350000504688E7284402582DE9F047454D0446C7
:1035100089464FF0000A2868C04380070AD0414E10
:10352000283E306820F080503060FDF7BBFA074637
:10353000B04608E00120BDE8F08700BFFDF7B2FA11
:10354000C01B022867D8D8F800008000F6D4208875
:1035500029684FF4FE0721F07C713E0241EA0050D9
:103560002860207AA389B4F804C040022D4D2D496B
:103570005B1E227CACF1010C1835091DA0F5007012
:1035800080B2521ECCF3080C07EA034340EA0C0059
:10359000184306EA0262104328600868626920F452
:1035A0004060104308600A68A06922F40072024378
:1035B0000A60281D0A6822F480720A6002684FF6C9
:1035C000F873E4699A4342EAC40202600868B9F1F8
:1035D000000F40F480720A6011D00868B9F1010F41
:1035E00011D040F080700860D8F80000444640F0E8
:1035F0008050C8F80000FDF755FA05460DE0086850
:1036000040F48000EFE740F40000ECE7FDF74AFAF1
:10361000401B022801D903208DE720688000F5D5E2
:10362000504688E7284402580148FEF7C5BB000011
:103630002027002410B5026840F26F335169946965
:1036400044F0080494610268946944F010049461A1
:103650000268146824F001041460026814699C4331
:1036600014610268936823F44043936090F88120CA
:10367000042A0CD08A060AD5D0F8842042F08002B1
:10368000C0F884200268936943F02003936190F8A6
:103690008120032A0CD04A060AD5D0F8842042F0B3
:1036A0000402C0F884200268936943F040039361E8
:1036B0008A050AD5D0F8842042F00102C0F884209F
:1036C0000268936943F400739361C9050AD5D0F881
:1036D000841041F00801C0F8841001688A6942F43E
:1036E00080728A610021A0F86210A0F86A1010BDF3
:1036F00010B5806B00210122A0F86A10A0F86210BA
:1037000080F88120FEF757FB10BD2DE9F041984667
:1037100016460D460746069C09E0FDF7C3F9A0EBE7
:103720000800A04202D3601C01D00BE054B13868FD
:10373000406935EA000007D00020B042EDD00020FB
:10374000BDE8F0810320FBE70120F6E77047FDF7B5
:10375000AFB9000030B59DB04C216846FCF746FE7D
:10376000202113A8FCF742FE0220FDF793FA20481F
:10377000016841F4404101600168002401F44041C6
:103780001B910168C9438904FBD41A4A0121022014
:103790001368C50323F003039B1C13600DF1280C71
:1037A00009902A22CDE900158CE80700CDE90D101B
:1037B0000FA90C23C50281E839006846FEF792F88C
:1037C00008B172B6FEE713AB3F20032183E8130074
:1037D0000A22189400211994CDE9162413A81A94EA
:1037E000FDF7B6FE002801D072B6FEE71DB030BD71
:1037F00018480258284402582748F0B5274A01685B
:1038000041F470010160106800F00F00072804D235
:10381000106820F00F00C01D106021490020204CCE
:1038200010340B681F4D43F001030B6020600B68E0
:103830002B400B60136803F00F03072B04D91368A8
:1038400023F00F03DB1D1360154C174A1834174B78
:10385000261D371D2060124C154D28343060261D62
:103860003860371D23603B1D35601C1D3A60251DE7
:103870002E1D1860331D22602860326018600A68AF
:1038800043F2D204064B0B4D22F4802260330A60CF
:1038900018602C60F0BD000088ED00E000200052B0
:1038A000004402587FEDF6EA8002010100020202A4
:1038B0000000FF0100400052FEE7090700284FEA20
:1038C000116104DB00F1E02080F80014704700F083
:1038D0000F0000F1E02080F8141D70471FB5002490
:1038E0000094019402940394FDF766F901208DF889
:1038F0000C001F218DF8081087228DF809208DF803
:103900000D008DF8000068468DF80A408DF80E40D5
:103910008DF8014001948DF80B408DF80F40FDF7B4
:103920001DF90420FDF756F9FDF7CAF8FFF712FF5D
:10393000FFF7BEFCFFF728FDFFF706FCFCF7EAFDEA
:10394000FCE7F0B583780124C27800214FF4004CE5
:103950004FF6FF7E9C40C3F10F032243C270DFB2DB
:10396000C578082462460EEA0123BD40ADB2A4F139
:103970000104A4B21A4200D06B4052086D08002C1A
:10398000F5D144184A1C91B2FF29E372E8D9857831
:1039900001880379C5F10707C5F108054679C478A0
:1039A00001F00702AB40AD1A3144BC40C908C171F7
:1039B0008371027245728472F0BD4FF04070E1EE87
:1039C000100A704700000000010203040102030412
:1039D00006070809F439000800000024600100000F
:1039E00008030008143A000860010024A82C000015
:1039F00064030008021F04B6010203040512220436
:103A0000FF06593881AE0102030405103182102CE3
:043A100090D003044B
:04000005080002CD20
:00000001FF
